{
  "transactions": [
    {
      "hash": "0xe04a9e44e5d75bcd549151c0149e6c7999ba0a48d4d2775966991017e7baa768",
      "transactionType": "CREATE2",
      "contractName": "ERC1967Proxy",
      "contractAddress": "0x9D3eD1452A5811e2a4653A9c8029d81Ca99b817f",
      "function": null,
      "arguments": [
        "0x919e4aB1dac4f06d63380303003e9826cD53b03E",
        "0x485cc955000000000000000000000000dac0bdf55d710ba218c2ce7ce16c4ea22cdbfb730000000000000000000000000000000000000000000000000000000000000000"
      ],
      "transaction": {
        "type": "0x02",
        "from": "0xf5bb7f874d8e3f41821175c0aa9910d30d10e193",
        "to": "0x4e59b44847b379578588920ca78fbf26c0b4956c",
        "gas": "0x3d0a3",
        "value": "0x0",
        "data": "0x000000000000000000000000000000000000000000000000000000000000000060806040526102de8038038061001481610194565b92833981019060408183031261018f5780516001600160a01b03811680820361018f5760208381015190936001600160401b03821161018f570184601f8201121561018f5780519061006d610068836101cf565b610194565b9582875285838301011161018f57849060005b83811061017b57505060009186010152813b15610163577f360894a13ba1a3210667c828492db98dca3e2076cc3735a920a3ca505d382bbc80546001600160a01b03191682179055604051907fbc7cd75a20ee27fd9adebab32041f755214dbc6bffa90cc0225b39da2e5c2d3b600080a28351156101455750600080848461012c96519101845af4903d1561013c573d61011c610068826101cf565b908152600081943d92013e6101ea565b505b6040516090908161024e8239f35b606092506101ea565b9250505034610154575061012e565b63b398979f60e01b8152600490fd5b60249060405190634c9c8ce360e01b82526004820152fd5b818101830151888201840152869201610080565b600080fd5b6040519190601f01601f191682016001600160401b038111838210176101b957604052565b634e487b7160e01b600052604160045260246000fd5b6001600160401b0381116101b957601f01601f191660200190565b9061021157508051156101ff57805190602001fd5b604051630a12f52160e11b8152600490fd5b81511580610244575b610222575090565b604051639996b31560e01b81526001600160a01b039091166004820152602490fd5b50803b1561021a56fe608060405273ffffffffffffffffffffffffffffffffffffffff7f360894a13ba1a3210667c828492db98dca3e2076cc3735a920a3ca505d382bbc54166000808092368280378136915af43d82803e156056573d90f35b3d90fdfea2646970667358221220c514302adaea16047c95fda6835c91c02411afc3bfafc481020259ae92e9260a64736f6c63430008170033000000000000000000000000919e4ab1dac4f06d63380303003e9826cd53b03e00000000000000000000000000000000000000000000000000000000000000400000000000000000000000000000000000000000000000000000000000000044485cc955000000000000000000000000dac0bdf55d710ba218c2ce7ce16c4ea22cdbfb73000000000000000000000000000000000000000000000000000000000000000000000000000000000000000000000000000000000000000000000000",
        "nonce": "0x7",
        "accessList": []
      },
      "additionalContracts": [],
      "isFixedGasLimit": false
    },
    {
      "hash": "0x70ff13041d689e930b21a0666d990c76ac763618931c3fdeff6c4e9990b1c5ec",
      "transactionType": "CALL",
      "contractName": null,
      "contractAddress": "0xDac0bdF55d710Ba218C2cE7ce16C4EA22cDBfB73",
      "function": "setOidRegistry(address)",
      "arguments": [
        "0x9D3eD1452A5811e2a4653A9c8029d81Ca99b817f"
      ],
      "transaction": {
        "type": "0x02",
        "from": "0xf5bb7f874d8e3f41821175c0aa9910d30d10e193",
        "to": "0xdac0bdf55d710ba218c2ce7ce16c4ea22cdbfb73",
        "gas": "0xa252",
        "value": "0x0",
        "data": "0x220d0aac0000000000000000000000009d3ed1452a5811e2a4653a9c8029d81ca99b817f",
        "nonce": "0x8",
        "accessList": []
      },
      "additionalContracts": [],
      "isFixedGasLimit": false
    }
  ],
  "receipts": [],
  "libraries": [],
  "pending": [
    "0xe04a9e44e5d75bcd549151c0149e6c7999ba0a48d4d2775966991017e7baa768",
    "0x70ff13041d689e930b21a0666d990c76ac763618931c3fdeff6c4e9990b1c5ec"
  ],
  "returns": {},
  "timestamp": 1710803796,
  "chain": 8453,
  "multi": false,
  "commit": "f1e6312"
}